:020000040800F2
:1000000018070020B5010008A51700089D17000873
:10001000A1170008BD020008A51900080000000093
:10002000000000000000000000000000CD180008E3
:10003000C102000800000000A91700089D1900086F
:10004000CF010008CF010008CF010008CF01000850
:10005000CF010008CF010008CF010008CF01000840
:10006000CF010008CF010008CF010008CF01000830
:10007000CF010008CF010008CF010008CF01000820
:10008000CF010008CF010008CF010008CF01000810
:10009000CF010008CF010008CF010008CF01000800
:1000A000CF010008CF010008CF010008CF010008F0
:1000B000CF010008CF010008CF010008CF010008E0
:1000C000CF010008CF010008CF010008CF010008D0
:1000D000CF010008CF010008CF010008CF010008C0
:1000E000CF010008CF010008CF01000800F002F89E
:1000F00000F050F814A696E8000CB244B344DA4578
:1001000001D100F047F8BAE80F000FA696E83000DA
:10011000A5EB040504EB0607AAEB0704A7F101070A
:100120004FEA15154FEA3414A4F10104AC4201D38F
:1001300000F030F813F0010F18BFFB1A43F0010371
:1001400000F001F8DBE71847901B0000B01B00002F
:10015000103A24BF78C878C1FAD8520724BF30C8F3
:1001600030C144BF04680C60704700007047000055
:100170000023002400250026103A28BF78C1FBD8B0
:10018000520728BF30C148BF0B6070471FB51FBD65
:1001900010B510BD00F058F81146FFF7F7FF01F059
:1001A00003FC00F076F803B4FFF7F2FF03BC00F0A5
:1001B0007DF800000948804709480047FEE7FEE750
:1001C000FEE7FEE7FEE7FEE7FEE7FEE7FEE7FEE707
:1001D00004480549054A064B70470000A11900086C
:1001E000ED00000818010020180700201803002067
:1001F000180300204FF0000200B5134694469646BF
:10020000203922BFA0E80C50A0E80C50B1F1200129
:10021000BFF4F7AF090728BFA0E80C5048BF0CC0D7
:100220005DF804EB890028BF40F8042B08BF704735
:1002300048BF20F8022B11F0804F18BF00F8012BA7
:100240007047704770477047754600F02BF8AE4610
:1002500005006946534620F00700854618B020B5D2
:10026000FFF7B6FFBDE820404FF000064FF0000753
:100270004FF000084FF0000BAC46ACE8C009ACE80A
:10028000C009ACE8C009ACE8C00921F007018D46FF
:10029000704710B50446AFF300802046BDE810401B
:1002A000FFF781BF00487047100000200149182067
:1002B000ABBEFEE72600020070470000FEE700002C
:1002C00070470000B0B5044600F024F9054640F23E
:1002D0000000C2F200000078611C18BF044400BF97
:1002E00000F018F9401BA042FAD3B0BD2DE9F04F41
:1002F00082B00E68002E00F0FD8041F20042C4F290
:100300000102042340F2004E904208BF03234FF63F
:10031000FF7CC4F2010E009300240123C1F2100CF3
:100320004FF0000A4FF000094BE000BF41F200021D
:10033000C4F20102009F904208BF022704F00C03A0
:100340000F229A402BEA020207FA03F34FEA9A05BA
:100350001A4346F825204E6840F20C45F202DEF8BA
:10036000082054BF22EA080242EA0802C4F201054A
:10037000CEF808202A68B30254BF22EA080242EAF3
:1003800008022A60B303DEF8042054BF22EA080200
:1003900042EA0802F303CEF80420DEF800204FF012
:1003A000010354BF22EA080242EA0802CEF8002004
:1003B0000E680AF1010A36FA0AF204F1040400F0A8
:1003C000998003FA0AFB16EA0B08F1D04E686645DD
:1003D00012DC122E56D8DFE806F0350B4D49555584
:1003E000555555555555555555555545510000BF11
:1003F000D1F80C9046E000BF4FF6FF72C1F2210227
:1004000096420FDC0022C1F2110296421AD000225D
:10041000C1F21202964215D00022C1F22102964288
:1004200010D02FE00022C1F2220296420AD0002210
:10043000C1F23102964205D00022C1F23202964248
:1004400020D100BF8A684AB1012A14BFC0F814B095
:10045000C0F810B04FF0080914E000BF4FF00409D5
:1004600010E000BFCA6802F104090BE04FF0000978
:1004700008E000BFCA6802F1080903E0CA6802F197
:100480000C0900BF02462646B8F5807F24BF04321F
:10049000203E17680F25B54027EA050509FA06F63C
:1004A00035431560CA79D2067FF582AF41F2180351
:1004B000C4F202031A68AEF57E7642F001021A60B9
:1004C0001A6802F001020192019A2AF0030256F81A
:1004D00002B040F60002C4F20102904208D040F699
:1004E0000042C4F2010290427FF420AF012725E7C9
:1004F000002723E702B0BDE8F08F000080680840C5
:1005000018BF012070470000002A08BF09040161DC
:100510007047000040F21010C2F2000000687047FF
:1005200040F2000040F21011C2F20000C2F20001DD
:1005300000780A68104408607047000080B542F2F5
:100540000000C4F20200016841F0100101600320C4
:1005500000F07AF80F2000F005F800F027F80020EE
:1005600080BD000070B540F20006C2F2000640F205
:1005700008013278C2F200014FF47A730968B3FBC4
:10058000F2F20446B1FBF2F1084600F075FF0F2CC1
:100590004FF0010508D838B94FF0FF30214600224E
:1005A000002500F025F87460284670BD82B041F245
:1005B0001800C4F202000168022241F0010101604A
:1005C000016801F0010101910199416841F08051F8
:1005D0004160406800F08050009000980420C4F210
:1005E0000100016862F31A61016002B07047000007
:1005F00010B54EF60C5CCEF2000CDCF80030C3F304
:10060000022E8EF00704042C28BF0424BEF103033D
:100610004FF0FF3E0EFA04F438BF0023A143994087
:100620000EFA03F39A43114300F00F0200F1604306
:100630000901043A03F564436244002848BF02F10B
:100640000C03197010BD00004EF60C51CEF20001E3
:100650000A684FF6FF031A4060F30A2242F08060F6
:1006600040F0FD7008607047002804BF012070470B
:100670002DE9F04381B042F20008C4F202080446BA
:10068000D8F800000D4600F0070088420CD2D8F8D8
:10069000000020F007002843C8F80000D8F8000048
:1006A00000F00700A8426CD1206841F204098107DC
:1006B000C4F2020917D5410705D5D9F8001041F455
:1006C000E061C9F80010010705D5D9F8001041F420
:1006D0006051C9F80010D9F80010A26821F0F001AB
:1006E0001143C9F80010C00742D1D8F8000000F04B
:1006F0000700A8420CD9D8F8000020F007002843D2
:10070000C8F80000D8F8000000F00700A84238D16F
:100710002068410707D5D9F80010E26821F4E061AC
:100720001143C9F80010000708D5D9F80000216965
:1007300020F4605040EAC100C9F80000D9F8002058
:1007400002F00C00082841F20020C0F27A004DD1DE
:1007500041F6C843C2F38341C0F60003595CD2039B
:1007600038D440F60010C0F23D0048433EE000BFE0
:10077000606859F8041C022808D0012826D1890392
:1007800006D4012001B0BDE8F08300BF8901F8D58F
:10079000D9F8001021F003010843C9F80000FFF761
:1007A000B9FE064641F28837D9F80000616800F0CA
:1007B0000C00B0EB810F98D0FFF7ACFE801BB84265
:1007C000F2D9032001B0BDE8F08300BF8907D8D576
:1007D000DEE700BFD9F8002041F6C643C2F340422D
:1007E000C0F600039A5C4843B0FBF2F0D9F8001061
:1007F00041F6AE42C1F30311C0F60002515C40F273
:10080000080220FA01F140F20400C2F20000006880
:10081000C2F200021160FFF7A5FE002001B0BDE8A2
:10082000F083000040F2080041F20401C2F200002F
:10083000C4F202010068096841F6BE42C1F3022118
:10084000C0F60002515CC8407047000040F208004A
:1008500041F20401C2F20000C4F20201006809681A
:1008600041F6BE42C1F3C221C0F60002515CC8404D
:1008700070470000002804BF012070472DE9F041B7
:1008800082B00446007841F20006C007C4F20206B6
:100890000CD0706800F00C00042840F081803068B3
:1008A000800303D56068002800F046812078800727
:1008B0001BD5706810F00C0F09D0706800F00C00A8
:1008C000082840F087807068C00300F1838030689A
:1008D000800703D52069012840F02E8130686169C6
:1008E00020F0F80040EAC10030602078000713D4FF
:1008F000207840072CD4E569002D00F0188170683D
:1009000000F00C00082840F0A780012D40F0048181
:10091000012002B0BDE8F081A069002800F08480C9
:100920000020C4F242200121C0F88014FFF7F2FD3C
:10093000054600BF706A800700F1B280FFF7EAFD4C
:10094000401B0228F6D9032002B0BDE8F08100BFA9
:10095000F0695FEAC00808D4F06940F08050F061A7
:10096000F06900F080500090009847F20007C4F250
:1009700000073868C00549D4386840F48070386092
:10098000FFF7C8FD054600BF3868C0053ED4FFF735
:10099000C1FD401B6428F7D9032002B0BDE8F081F7
:1009A000706800F00C00082803D17068C0033FF5A0
:1009B00076AF61683068002900F00C81B1F5A02F96
:1009C00000F00081B1F5803F40F01A8140F48030A2
:1009D0001CE100BF2069002840F20000C4F2422060
:1009E00000F0888001210160FFF794FD054600BFFB
:1009F000306880073FF572AFFFF78CFD401B02287F
:100A0000F6D9032002B0BDE8F08100BFE168306A8A
:100A1000002900F09D80052900F09280012940F016
:100A2000AF8040F00100B1E00020C4F2422000217C
:100A3000C0F88014FFF76EFD054600BF706A80079E
:100A40007FF556AFFFF766FD401B0228F6D903205D
:100A500002B0BDE8F08100BF0027C4F242270020A9
:100A60003866FFF757FD022D05460DD1306880012D
:100A700040F1DE80FFF74EFD401B02284FF00300DF
:100A8000F4D902B0BDE8F081306880014FD5FFF79E
:100A900041FD401B02284FF00300F5D9F1E700BFEC
:100AA00040F20800C2F20000006844F6D351C1F2DF
:100AB0006201A0FB0101480A019000BF00BF01983C
:100AC000411E002801913FF413AF00BF0198411E61
:100AD000002801913FF40CAF00BF0198411E00288F
:100AE00001913FF405AF00BF0198411E002801911C
:100AF000E4D1FDE600210160FFF70CFD054600BFD3
:100B0000306880077FF5F1AEFFF704FD401B022837
:100B10004FF00300F4D9B4E77068216A00F4803222
:100B20008A4209D1616A00F47010884204D1002021
:100B300002B0BDE8F08100BF012002B0BDE8F08145
:100B400040F004003062306A40F001001EE000BF57
:100B500020F001003062306A20F004003062FFF7BC
:100B6000D9FC054641F28837306A800720D5FFF767
:100B7000D1FC401BB8424FF00300F5D981E700BF1C
:100B800020F001003062306A20F004003062FFF78C
:100B9000C1FC054641F28837306A800708D4FFF768
:100BA000B9FC401BB842F7D9032002B0BDE8F08180
:100BB000B8F1000F3FF59FAEF06920F08050F06172
:100BC00099E600BF40F480203060306840F4803007
:100BD0001CE000BF20F480303060306820F48020BA
:100BE0003060FFF797FC0546306880037FF55EAE06
:100BF000FFF790FC401B64284FF00300F4D940E756
:100C000020F480303060306820F480203060FFF7BE
:100C100081FC0546306880033FF548AEFFF77AFC5B
:100C2000401B6428F6D9032002B0BDE8F08100BF64
:100C3000206AB0F5803F05D17168A26821F40031C7
:100C4000114371607168626A21F4741111430843A1
:100C5000706001203866FFF75DFC04463068800153
:100C60003FF565AFFFF756FC001B02284FF003006D
:100C7000F4D906E770B528B1416A29B100210161B4
:100C8000142106E0012070BD4168B1F5827F02D0D9
:100C90001C21002242500026866290F8511029B98A
:100CA00080F85060054600F039F82846022180F8A7
:100CB000511090E82E0002F482720C6803F4044391
:100CC00024F040040C601A4405F4006305691A44DA
:100CD00005F0020345691A4405F001038569C469FA
:100CE0001A4405F400731A4404F03803046A1A44E1
:100CF00004F08003846A1A4304F400531A430A6020
:100D0000042202EA15424A60CA6922F40062CA61FA
:100D10000121466580F85110304670BD70B586B02F
:100D200040F60044C4F20104006804F510510026A6
:100D300088420596CDE90366029601D006B070BDE3
:100D400041F21800C4F20200016802AD41F4805182
:100D50000160016801F4805101910199016841F03D
:100D6000080101600068294600F008000190019820
:100D70002820029002200390032005902046FFF7D0
:100D8000B5FA1020CDE90206204629460496FFF761
:100D9000ADFA0420C4F20100016841F0E06141F0C5
:100DA0000101016006B070BD2DE9F04182B004463A
:100DB00090F85100012819D160681D4617460E466B
:100DC000B0F5827F01D1A068A0B1FFF7A3FB8046F8
:100DD000002E4FF0010018BF002F03D102B0BDE874
:100DE000F08100BF94F85000012811D1022002B018
:100DF000BDE8F081042084F8510020463146324697
:100E00003B46009500F0CEF902B0BDE8F08100BF8E
:100E1000012084F850000420002184F8510061650D
:100E2000A663A787E7872163A186E186A268206879
:100E3000B2F5004F2164616438D00168490640D59D
:100E4000E168E08F002944D000287BD0681C0CD1D9
:100E50001BE000BFC068A16B21F8020BA163E08F0B
:100E60000138E087E08F00286CD020688168C907CE
:100E7000F0D1FFF74FFBA0EB0800A842F2D342E00D
:100E8000FFF748FBE08F00285CD020688168C90725
:100E9000F6D0C068A16B21F8020BA163E08F013886
:100EA000E087E08F0028F0D14CE000BF016821F01E
:100EB00040010160016821F4804101600168490638
:100EC000BED4016841F040010160E168E08F002973
:100ED000BAD1B8B3681C0CD124E000BF007BA16B71
:100EE0000870A06B0130A063E08F0138E087E08FCD
:100EF00040B320688168C907F0D1FFF70BFBA0EB76
:100F00000800A842F3D3012084F85100002084F89F
:100F10005000032002B0BDE8F08100BFFFF7FAFAED
:100F2000E08F78B120688168C907F7D0007BA16B9A
:100F30000870A06B0130A063E08F0138E087E08F7C
:100F40000028EFD16068B0F5827F11D1A068B0F5BC
:100F5000004F02D0B0F5806F0AD12168B0F5806FE4
:100F60000A6822F040020A6002D12046012101E015
:100F70002046802100222B46CDF8008000F016FC90
:100F800028B1606D40F02000606520206065012080
:100F900084F85100002084F85000606D002818BFCC
:100FA000012002B0BDE8F0812DE9F04182B01D467C
:100FB00016460F460446FFF7ADFA94F85110012982
:100FC0000ED18046002F4FF0010018BF002E03D134
:100FD00002B0BDE8F08100BF94F85000012803D1B1
:100FE000022002B0BDE8F081012084F85000032007
:100FF000002184F8510061652763A686E686A16317
:10100000A187E187A0682164B0F5004F2068616482
:1010100007D1016821F040010160016841F480417D
:1010200001600168490603D4016841F04001016094
:101030006168731EE268B1FA81F1B3FA83F349097A
:101040005B09B2F5006F41EA030139D131B137F8DC
:10105000021BC1602763E08E0138E086E08E002825
:1010600070D0681C0BD11AE0216B31F8022BC260E2
:101070002163E08E0138E086E08E002862D020688F
:1010800081688907F0D4FFF745FAA0EB0800A84271
:10109000F2D338E0FFF73EFAE08E002852D0206805
:1010A00081688907F6D5216B31F8022BC260216374
:1010B000E08E0138E086E08E0028F0D142E000BFEB
:1010C00039B139780173206B01302063E08E01382B
:1010D000E086E08EB0B3681C0BD123E0216B097869
:1010E0000173206B01302063E08E0138E086E08ED2
:1010F00040B3206881688907F0D4FFF70BFAA0EBB2
:101100000800A842F3D3012084F85100002084F89D
:101110005000032002B0BDE8F08100BFFFF7FAF9EC
:10112000E08E78B1206881688907F7D5216B09784E
:101130000173206B01302063E08E0138E086E08E81
:101140000028EFD12046022101222B46CDF8008055
:1011500000F02CFB40B92046802100222B46CDF820
:10116000008000F023FB28B1606D40F02000606536
:1011700020206065A06838B9002001902068C1680F
:101180000191806801900198012084F851000020AD
:1011900084F85000606D002818BF012002B0BDE83F
:1011A000F08100002DE9F04383B01E4615460F463E
:1011B0000446FFF7AFF994F851108146012909D18F
:1011C000002F4FF0010018BF002D0FD103B0BDE874
:1011D000F08300BF6068B0F5827F0DD104294FF025
:1011E0000200F3D1A1680029EAD0EFE7002EEDD08C
:1011F00094F85000012803D1022003B0BDE8F08329
:10120000012084F8500094F85100002104281CBFEC
:10121000052084F851006165A563E687A6872763EA
:10122000E6862068A686216461640168490603D4C5
:10123000016841F0400101606168731EE268B1FA23
:1012400081F1B3FA83F3DDF8288049095B09B2F52F
:10125000006F41EA030165D131B137F8021BC1606B
:101260002763E08E0138E086012518F1010032D1B4
:1012700002E000BFFFF74EF9E08E18B9E08F0028BA
:1012800000F0B8802068816889070CD5E18E51B1E3
:10129000012D08D1216B002531F8022BC26021639A
:1012A000E18E0139E1868168C907E3D0E18F002929
:1012B000E0D0C068A16B012521F8020BA163E08F8B
:1012C0000138E087D6E700BFFFF724F9A0EB09005B
:1012D000404580F0AF80E08E18B9E08F002800F024
:1012E00089802068816889070CD5E18E51B1012D74
:1012F00008D1216B002531F8022BC2602163E18EF9
:101300000139E1868168C907DED0E18F0029DBD091
:10131000C068A16B012521F8020BA163E08F0138A1
:10132000E087D1E739B139780173206B0130206350
:10133000E08E0138E086012518F1010032D101E08C
:10134000FFF7E8F8E08E10B9E08F002852D020684F
:10135000816889070ED5E18E61B1012D0AD1216B1B
:10136000002509780173216B206801312163E18E2A
:101370000139E1868168C907E2D0E18F0029DFD019
:10138000C068A16B01250870A06B0130A063E08FDD
:101390000138E087D4E700BFFFF7BCF8A0EB0900F5
:1013A000404547D2E08E08B9E08F18B320688168C5
:1013B00089070ED5E18E61B1012D0AD1216B00257F
:1013C00009780173216B206801312163E18E0139B5
:1013D000E1868168C907DFD0E18F0029DCD0C068D1
:1013E000A16B01250870A06B0130A063E08F01386C
:1013F000E087D1E72046022101224346CDF8009044
:1014000000F0D4F940B92046802100224346CDF8AF
:10141000009000F0CBF9B8B1606D40F0200060653D
:1014200020206065002084F85000012003B0BDE852
:10143000F08300BF012084F85100002084F85000A0
:10144000032003B0BDE8F083A06838B90020029003
:101450002068C1680291806802900298012084F897
:101460005100002084F85000606D002818BF012052
:1014700003B0BDE8F0830000411E0020B0EB116F07
:101480001CBF012070474EF21002CEF200025160E4
:101490004EF62351CEF20001F0230B70072190602D
:1014A00011607047002804BF0120704710B5044642
:1014B00090F8410028B9002084F84000204600F050
:1014C00063F8242084F841002068D4E90212C3683C
:1014D00023F40053C360036923F440531A430261A9
:1014E000D4E904231143C268194341F20C639A43BF
:1014F0001143C1604169A26921F44071114343F66F
:101500000002C4F201029042416103D0FFF78AF960
:1015100002E000BFFFF79AF9D4E9002319214843FC
:101520009900B0FBF1F048F21F5CC5F2EB1CA0FB88
:101530000C314FF69C734909C0F6FF7301FB0300A1
:10154000322303EB0010A0FB0C03F02000EA531041
:1015500000EB0110C3F3431108449060106920218F
:1015600020F490401061506920F02A005061D0684A
:1015700040F40050D0600020606484F8411084F88A
:101580004210606310BD000070B586B040F60004E4
:10159000C4F20104006804F5405100268842059613
:1015A000CDE90366029601D006B070BD41F2180085
:1015B000C4F20200016802AD41F48041016001689B
:1015C00001F4804101910199016841F00401016039
:1015D0000068294600F00400019001984FF4007063
:1015E000029002200390032005902046FEF77EFE25
:1015F0004FF48060CDE90206204629460496FEF7A6
:1016000075FE06B070BD00002DE9F04381B00446C0
:1016100090F84100202809D100294FF0010018BF9F
:10162000002A07D101B0BDE8F08300BF022001B05D
:10163000BDE8F0830020606421201D460E4684F83A
:1016400041001746FEF766FFA784E784A16881463C
:10165000B1F5805F02D1206900285DD037460020B7
:10166000E28C2168002A5DD06A1C24D0002D4AD06B
:10167000804600BF0868000608D4FEF74BFFA0EBC9
:101680000900A8427AD82168C868F3E717B117F8AB
:10169000010B04E038F8020B00276FF35F2048606D
:1016A000E08C0138E084E08C0028E3D13AE000BF10
:1016B0000A68120609D40A68120606D40A681206D5
:1016C0005CBF0A685FEA0262F2D51FB117F8012B0E
:1016D00005E000BF30F8022B00276FF35F224A605D
:1016E000E28C013AE284E28C002AE4D11AE000BFE5
:1016F00030F8022B00276FF35F224A60E28C013A38
:10170000E284E28C72B10A68120635D5002FEFD060
:1017100017F8012BF1E700BF00273046E28C216863
:10172000002AA1D1086840061ED42DB3681C14D12C
:10173000086840062AD40868400627D4086840068E
:1017400024D4086840064FF00000F1D50DE000BF3A
:101750002068C1680068400618D4FEF7DBFEA0EBE5
:101760000900A842F4D909E00020202184F84110A2
:1017700001B0BDE8F08300BFFEF7CCFE03202021BE
:1017800084F8411001B0BDE8F08300BF00202021A3
:1017900084F8411001B0BDE8F0830000FEE70000CE
:1017A000FEE70000FEE70000704700002DE9F0436F
:1017B00081B0089C984615460E468146FEF7AAFE63
:1017C000201A00EB0804FEF7A5FE40F20801C2F261
:1017D00000010968C1F3CB3161430091D9F80010D1
:1017E0008A683240921BB2FA82F25209AA423DD074
:1017F000074618F1010031D0FEF78CFEC01BA04255
:1018000038D2009800990028A1F101010091D9F87F
:101810000010896808BF044601EA0600801BB0FA80
:1018200080F04009A842E7D120E000BF886830403E
:10183000801BB0FA80F04009A84217D08868304079
:10184000801BB0FA80F04009A8420FD08868304071
:10185000801BB0FA80F04009A84207D08868304069
:10186000801BB0FA80F04009A842DFD1002001B00F
:10187000BDE8F083D9E900014268B1F5827F22F02A
:10188000E00242600BD1D9F80810B1F5004F02D048
:10189000B1F5806F03D1016821F040010160D9F8F2
:1018A0002810B1F5005F07D1016821F400510160F3
:1018B000016841F400510160012089F851000020C5
:1018C00089F85000032001B0BDE8F08370470000A4
:1018D0002DE9F04184B040F6000405460620C4F22C
:1018E00001048DF80F002046022100224FF002086B
:1018F000FEF70AFE40F27006C2F200060DF10F0775
:101900003046394601224FF0FF33FFF74DFB2046AA
:1019100002210122FEF7F8FD20200290204602213C
:101920000022FEF7F1FD02A9304604224FF0FF33FA
:10193000FFF73AFB204602210122FEF7E5FD642075
:10194000FEF7C0FC204602210022FEF7DDFD3046F6
:10195000394601224FF0FF33FFF726FB20460221D4
:101960000122FEF7D1FD204602210022CDF80080A1
:101970008DF80450FEF7C8FD6946304605224FF049
:10198000FF33FFF711FB204602210122FEF7BCFDC9
:101990000A20FEF797FC04B0BDE8F081FEF7C0BD59
:1019A00070470000FEE7000092B0FEF7C7FD07ACED
:1019B000201D2421FEF71EFC0220079001200B9021
:1019C00010200C90002520460E95FEF753FF28B1FD
:1019D000EFF3108072B600BFFEE700BF0F20CDE925
:1019E000020502A80021CDE904550695FEF73CFE4C
:1019F00020B1EFF3108072B6FEE700BF002641F27F
:101A00001800CDE90966CDE90766C4F20200016855
:101A100040F6000441F0100101600168C4F20104C5
:101A200001F0100102910299016804F5006B41F088
:101A3000040101600168012201F004010291029990
:101A400001684FF4005541F00801016000684FF44F
:101A5000005100F008000290029858460127FEF756
:101A600053FD2046022101224FF00208FEF74CFDF3
:101A70000795112008A907AD81E88101584629463C
:101A8000FEF734FC03200A9020462946CDE907875B
:101A90000997FEF72BFC202007A9C1C12046294643
:101AA000FEF724FC40F2700004F52051C2F2000061
:101AB0004FF482724FF40073102580E846000A212B
:101AC000C0E90368C0E90573C561C0E90866C0E9FB
:101AD0000A61FFF7CFF828B1EFF3108072B600BFAC
:101AE000FEE700BF40F2C80004F54051C2F200001A
:101AF0000C234FF4E13280E84600C0E90366C0E9F8
:101B00000536C661FFF7CEFC20B1EFF3108072B648
:101B1000FEE700BF01208DF80700FFF7D9FE032084
:101B20000790FF208DF80800204602210022FEF7D2
:101B3000EBFC40F27005C2F2000507A9284604221A
:101B40004FF0FF33FFF730FA02AE2846314601224C
:101B50004FF0FF33FFF728F940F2C800C2F200004F
:101B6000314601224FF0FF33FFF74EFD20460221A0
:101B70000122FEF7C9FC9DF80820012A8DF80720F4
:101B800004D858464FF40051FEF7BEFC40F27006F0
:101B90004FF00109C2F200060DF147070DF11C0AD2
:101BA000204620214D46FEF7A9FC80460138B0FAB8
:101BB00080F04FEA5019E8B24845F1D00A20FEF70C
:101BC00081FBB8F1010FEBD19DF807004FF40051F4
:101BD000451EA0F10100B0FA80F04FEA50125846BD
:101BE00018BF0125FEF790FC40F2C800C2F20000C9
:101BF0000DF1070101224FF0FF338DF80750FFF779
:101C000003FD06209DF807508DF84700204602216D
:101C10000022FEF779FC3046394601224FF0FF33AF
:101C2000FFF7C2F9204602210122FEF76DFC2020B9
:101C30000290204602210022FEF766FC304602A9EF
:101C400004224FF0FF33FFF7AFF9204602210122B3
:101C5000FEF75AFC6420FEF735FB204602210022E5
:101C6000FEF752FC3046394601224FF0FF33FFF7B2
:101C70009BF9204602210122FEF746FC0220079034
:101C80002046022100228DF82050FEF73DFC304610
:101C9000514605224FF0FF33FFF786F92046022117
:101CA0000122FEF731FC0A20FEF70CFB78E700006A
:101CB00000000000000001020304060708090000FC
:101CC00000000102030401020203040506070809DB
:101CD0000A0B0C0D0E0F1010F81C0008000000205D
:101CE0001000000050010008081D0008100000202E
:101CF000080700007001000801000000100000004B
:081D000000127A00000000004F
:04000005080000ED02
:00000001FF
